:020000040800F2
:10000000B1AA010000000000000000000000000094
:1000100000000000000000000000000000000000E0
:1000200000000000000000000000000000000000D0
:1000300000000000000000000000000000000000C0
:1000400000000000000000000000000000000000B0
:1000500000000000000000000000000000000000A0
:100060000000000000000000000000000000000090
:100070000000000000000000000000000000000080
:100080000000000000000000000000000000000070
:100090000000000000000000000000000000000060
:1000A0000000000000000000000000000000000050
:1000B0000000000000000000000000000000000040
:1000C000001B00080000000000000000000000000D
:1000D0000000000000000000000000000000000020
:1000E0000000000000000000000000000000000010
:1000F0000000000000000000000000000000000000
:1001000000000000000000000000000000000000EF
:1001100000000000000000000000000000000000DF
:1001200000000000000000000000000000000000CF
:1001300000000000000000000000000000000000BF
:1001400000000000000000000000000000000000AF
:100150000000000000000000000000007370043088
:10016000170500001305C5FF8545F605637BB5003F
:1001700089816378B500170500001305C5002E9529
:1001800002859302002073A0027D970200009382F3
:1001900062E7739072309732000093826296739098
:1001A000C27E73E0C07E973200009382A28D73906E
:1001B0005230970100189381E16A178100181301EA
:1001C00061E4175500001305A5C79705001893852E
:1001D00065E3170600181306E6E963FAC5008322F3
:1001E000050023A0550011059105E3EAC5FE17059A
:1001F0000018130525E89735001893852535637792
:10020000B500232005001105E36DB5FE73F0023241
:1002100017350000130505A7EF205023EF20D02944
:1002200001458145EF00500C6F20F02201A073E0E2
:0C0230000232828073F0023282800000F3
:10024000464154004641543332000000222A2B2CF0
:100250003A3B3C3D3E3F5B5D7C7F00000000000080
:100260000000000000000000000000000000000886
:1002700008080808080800001818000000486C2446
:100280001200000000000000000000000000002438
:1002900024247F1212127F12121200000000081C88
:1002A0002A2A0A0C1828282A2A1C080800000022DA
:1002B000251515152A585454542200000000000C2E
:1002C0001212120A76252911916E0000000606040A
:1002D00003000000000000000000000000402010AB
:1002E0001008080808080810102040000002040840
:1002F0000810101010101008080402000000000080
:1003000008086B1C1C6B08080000000000000000BF
:10031000080808087F08080808000000000000001E
:1003200000000000000000000606040300000000BA
:1003300000000000FE0000000000000000000000BF
:1003400000000000000000000606000000008040E1
:1003500040202010100808040402020000000018C9
:100360002442424242424242241800000000000857
:100370000E08080808080808083E00000000003CB5
:100380004242422020100804427E00000000003C4F
:100390004242201820404042221C00000000002061
:1003A0003028242422227E20207800000000007EB5
:1003B0000202021A26404042221C000000000038BF
:1003C0002402021A26424242241800000000007E45
:1003D0002222101008080808080800000000003C4D
:1003E0004242422418244242423C000000000018CD
:1003F0002442424264584040241C00000000000097
:10040000000018180000000018180000000000008C
:100410000000000800000000000808040000004080
:100420002010080402040810204000000000000012
:1004300000007F0000007F000000000000000002BC
:100440000408102040201008040200000000003CB6
:100450004242464020101000181800000000001C06
:10046000225A555555552D42221C00000000000807
:1004700008181414243C224242E700000000001F28
:100480002222221E22424242221F00000000007C43
:100490004242010101010142221C00000000001F34
:1004A0002242424242424242221F00000000003FDC
:1004B0004212121E12120242423F00000000003F90
:1004C0004212121E12120202020700000000003C3B
:1004D0002222010101712122221C0000000000E7FC
:1004E000424242427E42424242E700000000003E59
:1004F0000808080808080808083E00000000007CFA
:1005000010101010101010101010110F00000077B4
:1005100022120A0E0A12122222770000000000079F
:100520000202020202020202427F00000000007783
:10053000363636362A2A2A2A2A6B0000000000E3C3
:1005400046464A4A52525262624700000000001C6E
:100550002241414141414141221C00000000003F35
:10056000424242423E020202020700000000001C1A
:100570002241414141414D53321C60000000003F87
:100580004242423E1212222242C700000000007C7A
:100590004242020418204042423E00000000007F18
:1005A0004908080808080808081C0000000000E7BF
:1005B0004242424242424242423C0000000000E7C6
:1005C0004242222424141418080800000000006B82
:1005D000494949495555362222220000000000E7CA
:1005E000422424181818242442E700000000007751
:1005F0002222141408080808081C00000000007ECD
:100600002120101008040442423F0000007808082E
:10061000080808080808080808087800000002020E
:10062000040408080810102020204040001E10106C
:10063000101010101010101010101E000038440080
:1006400000000000000000000000000000000000AA
:100650000000000000000000000000FF000608008D
:10066000000000000000000000000000000000008A
:100670000000003C4278444242FC000000000003BD
:100680000202021A26424242261A0000000000001E
:1006900000000038440202024438000000000060FC
:1006A000404040784442424264D8000000000000CC
:1006B0000000003C427E0202423C0000000000F0CC
:1006C0008808087E08080808083E000000000000AE
:1006D0000000007C22221C023C42423C000000033D
:1006E0000202023A4642424242E700000000000C89
:1006F0000C00000E08080808083E0000000000304A
:1007000030000038202020202020221E000000037E
:1007100002020272120A1612227700000000000E76
:100720000808080808080808083E00000000000043
:100730000000007F9292929292B7000000000000A9
:100740000000003B4642424242E700000000000039
:100750000000003C42424242423C000000000000D7
:100760000000001B26424242221E02070000000039
:100770000000007844424242447840E0000000001B
:10078000000000774C040404041F00000000000077
:100790000000007C42023C40423E0000000000009D
:1007A0000008083E080808080830000000000000A3
:1007B000000000634242424262DC00000000000090
:1007C000000000E742242414080800000000000094
:1007D000000000EB494955552222000000000000AE
:1007E0000000007624181818246E00000000000095
:1007F000000000E742242414180808070000000045
:100800000000007E22100808447E000000C0202066
:1008100020202010202020202020C00010101010A8
:1008200010101010101010101010101000060808F2
:100830000808081008080808080806000C32C2005A
:100840000000000000000000000000006E6F206348
:1008500061726420666F756E642100006C6F676F53
:100860002E62696E000000006F70656E2065727206
:100870006F723A202564210A0D000000626D702E0F
:1008800062696E0000000000000000000040AF4000
:100890000000000000000000010203040607080930
:1008A0006E6D690A00000000747261700A00000039
:1008B0000A50726F6772616D206861732065786994
:1008C000746564207769746820636F64653A00001A
:1008D0003078000000000000000000000000000070
:1008E0000000000000000000000000000000000008
:1008F00000000000000000000000000000000000F8
:1009000000000000000000000000000000000000E7
:1009100000000000000000000000000000000000D7
:1009200000000000000000000000000000000000C7
:1009300000000000232D302B20000000686C4C00CC
:100940006566674546470000303132333435363707
:1009500038394142434445460000000030313233CB
:1009600034353637383961626364656600000000EB
:10097000AA3D0000FA3C0000003D0000FA3C0000E7
:100980009C3D0000FA3C0000003D0000AA3D000034
:10099000AA3D00009C3D0000003D0000E03C00003E
:1009A000E03C0000E03C0000043D000098410000F5
:1009B00098410000B04100009241000092410000C7
:1009C0003E420000B0410000924100003E42000063
:1009D00092410000B04100009041000090410000B1
:1009E000904100003E4200000001020203030303A5
:1009F00004040404040404040505050505050505AF
:100A0000050505050505050506060606060606068E
:100A10000606060606060606060606060606060676
:100A2000060606060606060607070707070707075E
:100A30000707070707070707070707070707070746
:100A40000707070707070707070707070707070736
:100A50000707070707070707070707070707070726
:100A6000070707070707070708080808080808080E
:100A700008080808080808080808080808080808F6
:100A800008080808080808080808080808080808E6
:100A900008080808080808080808080808080808D6
:100AA00008080808080808080808080808080808C6
:100AB00008080808080808080808080808080808B6
:100AC00008080808080808080808080808080808A6
:100AD0000808080808080808080808080808080896
:100AE0000808080808080808130101DA130520603F
:100AF000232E1124232C812423282125232A9124E9
:100B00002326312523244125232251252320612515
:100B1000232E7123232C8123232A9123EF10B0212C
:100B200013054060EF10302189660D46C145371529
:100B30000140EF105014371401400D469946C1454D
:100B400013050480EF1030134169EF10207CEF1083
:100B5000603F1305F9FFEF10605E1307F9FFB70759
:100B6000002089653715014023A0E708EF10F01A2F
:100B7000894513050480EF10501A91451305048030
:100B8000EF10B019B715000837050020054693850A
:100B9000458A13050509EF008077631705168D64F4
:100BA000B7090020371C0008B71B000893840420F5
:100BB000130404804E8B9305CC8505460808EF008E
:100BC000E079AA8509C513858B86EF20E020814551
:100BD0000808EF005044740026869385892B080886
:100BE000EF00D02B930670021306F00981450145F2
:100BF000EF10006E91452285EF1050130549330622
:100C0000A94091452285EF10D011A6850808EF0074
:100C10009040740026869385892B0808EF001028E1
:100C20009306F0041306F009930580020145EF10C6
:100C3000206A91452285EF10700F3306A940914537
:100C40002285EF10100E1305C05DEF1080780808A4
:100C5000EF00B03AB71500089385C5870546080828
:100C6000EF00C06FAA8509C513858B86EF20C016DB
:100C7000996A371A57030149854C938A0A40130A27
:100C80000A407400268693058B2B0808EF0010217C
:100C9000930670021306F00981450145EF10406389
:100CA000B30599000808EF00103791452285EF1031
:100CB000F0073386AC4091452285EF109006740012
:100CC000268693058B2B0808EF00501D1306F009AC
:100CD0009306F004930580020145EF10605F56997A
:100CE000CA850808EF00303391452285EF101004C3
:100CF0003386AC4091452285EF10B002E31349F9E9
:100D00000808EF00902F45BDB71400081386C4846F
:100D1000814681456145EF1000551386C484FD4628
:100D2000C1456145EF1020541386C4849306F981B0
:100D3000930500026145EF1000531386C4849306A7
:100D4000F07F930500036145EF10E0511386C484E2
:100D500093060980930500046145EF10C050854457
:100D600013040480896537150140EF10207C338619
:100D7000A440896537150140EF10A07A1305800C57
:100D8000EF10206589452285EF10407A3386A44014
:100D900089452285EF10E0781305800CEF10606321
:100DA00091452285EF1080783386A44091452285B5
:100DB000EF1020771305800CEF10A06165B7834713
:100DC000350003472500A207D98F03471500A20766
:100DD00003450500D98FA2075D8D8280AA872A96D8
:100DE0008507850503C5F7FF03C7F5FF198D6383E5
:100DF000C7007DD582805845F915791763F9E5005C
:100E00008357A5000851B387B7023E9582800145FC
:100E100082801C419DC33E87930500021306A003F8
:100E200005078306F7FF13F8F60F63F20503E3994E
:100E3000C6FE938627006304D700FD5711A80386DA
:100E4000070093060003FD576314D60018C18147BD
:100E50003E85828001ED814725459CC182802545E4
:100E60008147F24062449CC1056182801C410111AE
:100E700022CC06CE2A84E5D703C707006DD383565C
:100E8000450003D76700E39CE6FC03C517002EC6A8
:100E9000EF00B06C0589B24579F11C40D9B75C51BF
:100EA0006389B702411122C426C206C62A84AE84D1
:100EB0002E8693058502034515008546EF00306BAD
:100EC00019C10545FD5444D0B24022449244410129
:100ED000828001458280411122C406C6FD575CD143
:100EE000A30105002A84653F91472DE10347742241
:100EF00083476422ED7622075D8F42074187938600
:100F000056A58D476314D704834784021307B00E98
:100F10006389E700E10713F7F70F8546894763E721
:100F2000E602B70500080D46938505241305E40580
:100F30007535814701CDB7050008154693854524D1
:100F40001305A407613DB337A0008607B2402244D1
:100F50003E8541018280397106DE22DC26DA4AD8DC
:100F60004ED652D456D25AD023A005002EC655359F
:100F7000AD47634D0502370700209317250013077F
:100F80000707BA978043AA84B1470DC0B24580C114
:100F9000834704009DE713F5F40F23000400A3002A
:100FA000A400EF00103605898D4705C5F250625444
:100FB000D2544259B259225A925A025B3E8521615B
:100FC000828003451400EF0050590589814761F57F
:100FD000F1BF81452285013789476319F50404086B
:100FE0001309E41E130AE422A6898347C9FF0145B9
:100FF00099C34A85E93323A0A90041099109E31661
:1010000049FF13890401854983AA04000D456387BC
:101010000A00D6852285C13563F3A9029104E31540
:1010200099FE11478547631AE50049B7114785477F
:10103000E30EE5F6814A63F4A700B54785BF834711
:10104000440303473403A207D98FC207C18713079C
:101050000020E394E7FE0349F4038347E4032209F5
:101060003369F900631609001305C404893B2A8912
:10107000834484032328240105479387F4FF230135
:10108000940093F7F70FE36AF7FA834954039397B1
:101090000901C1832315F400CDD39387F9FFB3F77A
:1010A0003701C1FF8347A403034A9403A207B3E7B0
:1010B0004701139A0701135A0A41131B0A01135BD4
:1010C0000B01231464019377FB00A5FB0345C403C4
:1010D0008347B40322055D8D01E513058404C53102
:1010E0008347740303476403A207D98FB9D73387B3
:1010F000240393554B00BE95BA95E360B5F40D8D6E
:10110000B3543503E36B35F3B7060010D516E3E6A9
:1011100096F2C166D51663F496088D498904D69770
:10112000D69544C4232A54011CCC0CD08D46639917
:10113000D9048347340503472405A207D98FB36731
:10114000FA00C207C187E39A07EE13054405853903
:1011500048CC8A049384F41FA580E36099EE370796
:101160000020130747078357070023003401850732
:10117000C207C1832310F7002313F40081473DB554
:10118000E30D0BEABA975CCC89476394F9008604B7
:10119000D1B7B386D40285888582B69465BF856948
:1011A000D519B3B99900850995BF854763F8B70C80
:1011B0005845011122CC06CE26CA4AC84EC62A84FA
:1011C00063F7E502034705008946AE846306D70648
:1011D0008D466305D708631CF70013D915001C4D15
:1011E0002E9993559900BE955D3911C9FD57F2406E
:1011F0006244D2444249B2493E85056182801C4C1A
:101200009309190093D599001379F91F2299BE9576
:10121000228503498902613171F993F9F91F4E94CE
:10122000834784028588A207B3E7270199C0918389
:101230007DBFD207D18365BF1C4DA181BE9585318D
:1012400055F586041304840293F4E41F269483471F
:10125000140003470400A207D98F51BF1C4D9D8184
:10126000BE95353941F51395240013048402137596
:10127000C51F2295A9369317450055BF85473E8562
:10128000828001114AC80329850022CC26CA06CED5
:101290004EC652C423280500AA84004163110904E4
:1012A00003470400894763F4E7005C4C85EB8357F0
:1012B000840091EB0945F2406244D2444249B2496C
:1012C000224A056182805C4C9CCC9C4C23AA240160
:1012D000F5D313048402C0CC0145F1BF3E89835786
:1012E000A400FD59054A89EF8840CA857D3D2A89B9
:1012F000630D3501E370AAFC5C44E367F5FE5DBF56
:10130000CA852285CD3C88CCC9B705456DB77971B2
:101310002AC6680806D62EC432C22ECEDD3C634DE6
:101320000502B7070020138707070A052A97184305
:1013300093870707124619C323000700324719C3D2
:1013400023000700AA9798C3014501C66C00280036
:101350001931B250456182802D45E5BF1971A6DA79
:1013600086DEA2DCCAD8CED6D2D4D6D2DAD0DECEB1
:10137000E2CCE6CAEAC8EEC62EC6A5446309052E2D
:101380002A840C0868003289F936AA842A8B631EE5
:10139000050EC249B24B9306F0024ECA1307C005B0
:1013A00083870B006388D70C6386E70C02CE03C7E4
:1013B0000B00FD4763F2E70C130A0002930AF002E8
:1013C0005C08238047031307F1018507E31BF7FE41
:1013D0000147014621459308C0051303E0022D4E45
:1013E000930ED007654F930FF0039302E00793032A
:1013F000F00FB387CB0083C7070093061600637016
:10140000FA0263845701639817099305C005338670
:10141000DB0003060600630E5607630CB606B69B98
:101420003DCF834641031307500E6395E6001547F1
:10143000230AE10211476373FA000147D2474808C3
:10144000A30FE1023EC4353D2A8B63140516054DFA
:10145000FD5DB2552245A1342A8B631C051442550B
:1014600083470500F1E38347F103918B114B91EF23
:10147000154B21A8850B2DB7930700F84808A30F3B
:10148000F10201352A8B6302051823200400DA8457
:10149000F9AA8506ADBF638E671E6364A700194B6A
:1014A000EDB79385F70793F5F50F63E5BE04DE9678
:1014B000838606009305260013F6F60FE3F1CFFEB0
:1014C00063F6C200E3DD06FCE30B76FC9306F5FF52
:1014D000E377D7FC1308010493061700330BE800E9
:1014E000230AFBFEB687C2970907238AC7FEAE868A
:1014F000368601B7370600081306C62483050600A2
:1015000089C5E38EB7F80506D5BF1386F7F91376BC
:10151000F60F6365CF00811793F7F70F90003A96A7
:10152000230AF6FE0507E9B78347B50013F7F7036B
:10153000230DE100A18B91E72D464C18EFF01F8A97
:101540002DC91257B7072000524C930C070263E3D2
:10155000FC0002D6B25681DA13FBFC1F631C0B00A1
:10156000A255850636D689ED03568C0093D65C00CD
:10157000E3FBC6EE93078C023E9B66D25AD8D1BDE0
:101580008356AC0013D69C00FD16F18EE5F66285FD
:101590002939AA85637EAD006305B5038326CC0097
:1015A000E373D5EC2AD46285EFF0FF842AD6D9B74D
:1015B000094B8347F10363080B001147E317EBEC7A
:1015C0006DB5054BFDB7918BA9E38347A101C18B95
:1015D000E38007EA12579387890203C6090013774D
:1015E000F71FBA9703C7B70183C6A7012207558F14
:1015F0008D46631AD60083C6570183C74701A206EA
:10160000D58FC2075D8F3ACE65BB8307F103E3C870
:1016100007E88347A101C18BBDEB4255C24983470F
:10162000B5010347A50183C60900A207D98F0D475D
:10163000639AE60003475501834645012207558F0B
:101640004207D98F1CC47105EFF06FF783D769008B
:101650001379190048C4232034012312F40023080D
:101660002401A3080400232E0400232A0400F650BA
:10167000665426854659D654B659265A965A065B5C
:10168000F64B664CD64C464DB64D09618280114BE7
:10169000EDBBE306C5E121472D4599BD1D71A2CCE7
:1016A000A6CAD2C4D6C286CECAC8CEC6DAC05EDE4C
:1016B00062DC66DA6AD86ED62E8A23A006006C0831
:1016C000AA8432C6B68AEFF0EFF82A8425E183C7F0
:1016D00014013E84A1EF83C704011D44858BB9C763
:1016E000C044DC4832461D8C637386003284930B01
:1016F0000020138B0402130CF01FFD5C05C8DC48AE
:1017000013F7F71F61E772478359A70013D79700B4
:10171000FD19B3F9E900639709048DEB8844854707
:1017200063EAA7028947A388F40009442285F640AA
:101730006644D6444649B649264A964A064BF25B69
:10174000625CD25C425DB25D256182808C4C8840D7
:10175000A93CF1B7631795018547A388F4000544B8
:10176000F1B788CCF24D8C4C6E85EFF0CFE85DD9A7
:10177000338DA90063708C0483D7AD001359940096
:101780003387290163F4E7003389374103C51D001E
:10179000CA866A86D285E12B61F19316990083A7E8
:1017A0000A00158C369AB69723A0FA00DC48BE963C
:1017B000D4C8A9B7DC4C6389A70103C51D008546C1
:1017C0006A86DA856D2349F923AEA401D848A2863A
:1017D0001377F71FB387EB4063F38700BE8681471B
:1017E0003306F7005A96834506003306FA0085074C
:1017F0002300B600E396F6FE5DB701116C0022CC23
:1018000006CE2A84EFF00FE519E123200400F24010
:1018100062440561828079714ECEAE896C0022D41B
:101820004AD006D626D252CC56CA2A84EFF08FE28E
:101830002A8955E9034914016317090A444463F3EB
:101840009900CE845C48232A04009DE4014961A8E4
:1018500081445C4893F7F71FF5DB5C4C6385970880
:10186000B2478546268603C5170093050402012367
:101870002A8935E544CC85A832478359A700A609B3
:10188000B1C3FD171387F4FF33573703B3D63703BC
:10189000636AD702330730410C4CF98F5CC89D8CCA
:1018A000C5D97D5A854A5C4863E19902A6975CC810
:1018B00093F7F41FD1DF3245EFF0EFD329C5A580B0
:1018C000AA9441BF0C440CCCE1BF0840CE975CC841
:1018D000EFF0BF8DB3843441AA856310450385477B
:1018E000A308F4000549B25022544A859254025983
:1018F000F249624AD24A4561828063F6AA00B24741
:10190000DC476367F5008947A308F4000949E1BF94
:1019100008CC51BF411122C43744004026C24AC0FE
:1019200006C6AA841309048089454A85EF00F05F42
:1019300065DDA6851305048037440040EF00705D27
:101940009304048085452685EF00305E65DD130530
:101950000480EF00505CB240224492440249137567
:10196000F50F410182804111B707002022C406C64D
:101970001387C70708C31384C7071305F00F593F20
:101980009307F00F6304F5001C40E5FBB2402244CE
:10199000130515F0133515004101828037150140FC
:1019A0004111130505C0856506C6EF001037B2402A
:1019B0001305F00F4101B9BF3715014001118565CD
:1019C000130505C006CEEF0090351305F00F9937CB
:1019D0001305401F493F2AC611E5C9373245F24079
:1019E000056182800545E5BF41119317850122C439
:1019F00026C206C6E1872A84AE8463DC07008145DF
:101A000013057003D5370547AA87636EA7061374BD
:101A1000F407B1476314F40613650404E53D13D5D8
:101A20008401CD3D13D504011375F50FE53513D5AC
:101A300084001375F50FF93D13F5F40FE13D13051F
:101A4000500919C4A14705456314F4001305700833
:101A5000D135B1476315F4001305F00F653D2944F6
:101A60001305F00F453D131785016187AA87635C55
:101A700007007D141374F40F65F431A005372D3F72
:101A80009307F00F51F9B240224492443E85410140
:101A900082800111B707002022CC26CA06CE138708
:101AA00087079306800C2A8414C393848707130541
:101AB000F00F2EC685359307F00FB245631AF50077
:101AC0009C40F5F7F2406244D2443E850561828035
:101AD0001307E00F8147E317E5FE8505B304B40063
:101AE0001305F00F053D2300A4000504E39A84FECE
:101AF0001305F00F05351305F00F293D8547D9B7BC
:101B00008280631A052439711305306006DE22DCF9
:101B100026DA4AD84ED6EF0010221305E070EF0007
:101B20009021B7140140A9660D46E145138504C014
:101B3000EF00701491660D469145138504C0EF00C7
:101B4000901385660D46C145138504C0EF00B012A1
:101B50008565138504C0EF00501C930740103EC2FA
:101B60008D47374900403ECC930700203EC84C00CB
:101B700093070002130509803ECE02C402C602CAC2
:101B8000EF0030359D4513050980EF0050391305EE
:101B90000980EF0070372945EF00B003130510707E
:101BA00037040040EF00301913050440EF0090386F
:101BB0009307703E4C00130504403EC69307B006E1
:101BC0003EC2231401002318010023090100EF0085
:101BD000904113050440EF00904A130504408545E9
:101BE000EF00F04B130504408545EF00D04B130583
:101BF00004408145EF00304913050440EF00904751
:101C00003704002013070406834707001304040663
:101C1000898B81CF03450700F2506254D254425958
:101C2000B2591375F50F21618280832709801385CE
:101C300004C0856593F777FC93E787022320F9803A
:101C4000EF00F00DA944FD141305F00F93F4F40F09
:101C5000D131F5F881450145413B8547AA89631A91
:101C6000F50EB7040020938784071307803E930581
:101C7000A01A214598C38D3B938484076314350BC8
:101C8000014991491305F00F71315C00CA97238017
:101C9000A7000509E31839FF034761008547631A68
:101CA000F70A034771009307A00A6314F70A9C40E0
:101CB00099C7B70500401305900A3D336DF99C4064
:101CC000C9CB81451305A003053341E58144114982
:101CD0001305F00F81315C00A6972380A7008504CF
:101CE000E39824FF83474100314993F7070491E3C8
:101CF0001149B7070020238B27074D318547630E15
:101D00000900374700408327078093F777FC23209B
:101D1000F7808347040093F7E70F2300F40003459F
:101D20000400DDBD81451305900A7D39054963E551
:101D3000A90009499309900A9C4089C781454E85AD
:101D400065317DF99C4091C7930500204145693973
:101D50004DD1014979BF0545828001E9B7070020CF
:101D600003C507061375F50F8280054582802DEDAA
:101D7000411122C406C626C236841145A9C2B7073E
:101D8000002083C707060D45858B95EBB70700201C
:101D900083C76707AE84B285A18B99E3931596003C
:101DA00085476313F4024545813119E59305002009
:101DB0002685C53113341500D53633358000B24041
:101DC00022449244410182804945393975F5930591
:101DD000002026857D3909C57D149384042065F88B
:101DE000814531451131C9BF11458280411122C45D
:101DF0002A84371501409145130505C006C6EF003A
:101E00000072894537350140EF0030127DD9A28537
:101E100037350140EF00F00F854537350140EF00C1
:101E2000D0107DD937350140EF00F00E2244B2408A
:101E3000371501409145130505C041016F00E06D64
:101E4000411122C42A8437150140130505C0854578
:101E500006C6EF00806C22852244B240410179B76A
:101E6000411122C42A84371501408545130505C058
:101E700006C6EF00806A135584001375F50FBD3751
:101E80001375F40F2244B24041018DB7411122C4B1
:101E90002A8437150140130505C0854506C6EF00A5
:101EA000006822852244B240410189B7011122CC49
:101EB0002A841305A00206CE36C22EC632C4F937D4
:101EC00013051400713F224613051600513F1305F8
:101ED000B0026D3FB2451385A5015937924613856F
:101EE000A601BD3F6244F2401305C002056179BFFF
:101EF0003715014079719145130505C006D6EF00ED
:101F0000C0614800EF00407B930740103EC28D4700
:101F10003ECC930700203EC84C00C14737350140F6
:101F20003ECE02C402C602CAEF00A07A9D453735F4
:101F30000140EF00C07E37350140EF00E07CB25039
:101F40004561828041111305206006C622C4EF005E
:101F5000805E13053060EF00005E13050060EF0047
:101F6000805D1305C060EF00005D3714014013056C
:101F700004809306000E0D46E145F529130504C0C3
:101F800091460D46C145C529A5378D460D46130519
:101F900004C0C145CD21130504C08D45EF00205874
:101FA0008945130504C0EF0080571305800C1521E7
:101FB0008945130504C0EF00405651451929454590
:101FC000F13513054006312113051002C135130503
:101FD000100B6D3D1545AD351305A0039535130563
:101FE000A003B93D1305200B55351545913D13054B
:101FF000A003B9351305A003A1351305300B7935BE
:1020000015453D3D1305A003253D1305A0030D3DDA
:1020100015453D351305A00325351305A0030D35E2
:102020001305400BA5350D45213D1305000CB93DA9
:1020300013052006313509452135114511351305A4
:10204000100CA9351305000CE53B1305200C3D3D94
:102050003545FD330145ED331305300C053D1305C2
:10206000D008F93B1305A006E13B1305400C393DB0
:102070001305D008F1331305E00ED9331305500CC6
:1020800031353945753B1305000E093541454D3B4A
:1020900039457D3309456D330D455D3339454D3344
:1020A0001D45793B0945693B1D45593B2945493B40
:1020B00049457933130570026133130570034933C1
:1020C0000145BD3B3545AD3B39459D3B41458D3BCC
:1020D0001305100E653B4145A533394595330D4534
:1020E00085330D45B13B3D45A13B1945913B094524
:1020F000813B2145B1332945A1334D45913313052A
:1021000060023D3B13056003253B0145153B35450A
:10211000053B39453533414525331305A003BD3310
:102120001545393B13056003953313058007093BBB
:102130002244B24013059002410189BB41114AC0BB
:102140009306F0042A891306F0098145014526C249
:1021500006C622C49304000AEFF05FD513040005FD
:102160004A857D14EFF0DFCF65FCFD14E5F8B24041
:1021700022449244024941018280411122C4AE8628
:1021800032842A8606C6EFF07FD222852244B240EE
:1021900041016FF0FFCC9307000963E5A70C79714B
:1021A00022D406D626D24AD04ECE52CC56CA5AC8CF
:1021B0005EC6930700042E8463E2B706B2848114DE
:1021C00093F4F40FB68A130675009386F5001399FD
:1021D0004400B7040008AA893A8A9384C425EFF022
:1021E000FFCC63980A048149B70B0020414BB30729
:1021F0003901A69783CA0700214493F71A00528534
:1022000099E303A50B087D141374F40FEFF05FC579
:1022100093DA1A007DF08509E39B69FDB2502254E0
:1022200092540259F249624AD24A424BB24B45613A
:102230008280CA94130B0401A14B83CA0400014994
:1022400093F71A0091C75286A28533852901353745
:10225000050993DA1A00E31579FF05048504E31EE6
:1022600064FD6DBF828001114EC6C16922CC26CAB1
:102270004AC852C456C25AC006CE2A84AE84328995
:10228000368A930A0009130B000493890980834757
:10229000090099EBF2406244D2444249B249224AD1
:1022A000924A024B0561828063F48A00C1040144B2
:1022B00063769B004E8559358144014403460900ED
:1022C000228552878146A685F93521040509C1B7C3
:1022D000411126C24AC08D643709002022C406C6B7
:1022E0000144EFF0BFBC1309892B93840420B3078A
:1022F000240103C507000504EFF09FB4E31994FE21
:10230000B2402244924402494101828041111305A6
:10231000206006C622C405241305E060292C37146A
:10232000014013050480930600200D46E145A122DB
:10233000930600400D469145130504802D2A37442D
:10234000014013050480A523F165130504809385DE
:102350000520DD23130504808145992D1305048094
:10236000814585251305048081451D2D13050480B5
:10237000814561251305048081457125130504807D
:1023800091459D25A14513050480912D13050480D9
:102390009125130504802244B24093055030410139
:1023A00059A5411122C43744014026C29375F50F47
:1023B000AA841305048006C6130404801D2D9D45C0
:1023C0002285812D6DDDB240224426859244410153
:1023D000828079714AD04ECE5AC806D622D426D2EF
:1023E00052CC56CA5EC662C466C22A8B892DAA899F
:1023F0002E89B125AA842E846394A900E30BB9FE2B
:10240000B717000803A9878883A9C788B70B0020DE
:102410003D25AA87058DB3B7A700818D9D8DEF203F
:10242000D0032A8A03A54B06AE8AEF20007E4A8697
:10243000CE86EF10B05C2A8C5A85AE8CEF20E07C03
:102440002A86AE866285E685EF20E0382A86AE864B
:102450005285D685EF20E02DE34C05FAB250225488
:1024600092540259F249624AD24A424BB24B224C30
:10247000924C4561828093F7050193F8F50099C36A
:10248000B3E8C8008147054EBD4E130F8002930F7D
:10249000800421433316FE00758E1DC2139727005A
:1024A000832205003398EE001348F8FF3378580074
:1024B0003397E800336707016399E50550C918C1F0
:1024C0008507E39967FC054EBD4E130F8002930FFD
:1024D000800441433316FE00758E05C6139727000E
:1024E0000117832245003398EE001348F8FF337834
:1024F00058003397E80033670701639CE50150C932
:1025000058C18507E39867FC8280E39AF5FB10C900
:102510007DB7E397F5FF10C9E5B70CC982804CC9B8
:10252000828019C20CC982804CC9828008456D8D99
:102530003335A0008280B7170240135765003E97DD
:1025400014438547B397A700D58F1CC38280B71764
:102550000240135765003E9714438547B397A70081
:10256000D58F1CC38280B7170240135765003E9772
:1025700014438547B397A70093C7F7FFF58F1CC394
:1025800082807971B715000822D441462A84938548
:102590000589080806D6EF00C078B70703049387BB
:1025A000172002C03EC202C43EC6371702405C4339
:1025B000894689838D8B6397D70E5C439396F7008A
:1025C00063D606065C579396F70063DC06045C57F7
:1025D000585791832183BD8B3D8B93861700090744
:1025E000C5476313F7005147B7177A009387072051
:1025F000B3D7D702B387E7023717024058573D8B4E
:10260000050733D7E702B7160240DC42D442C9833C
:1026100013962600BD8B6350060293E707018507DA
:102620000DA0B7177A0093870720F9B7B7173D00B9
:1026300013870790C9BFBD46E383D7FE8907638D23
:10264000D704B387E702B7160240D84210101183AF
:102650003D8B3297034507FFD84233D5A70021832E
:102660001D8B3297034607FED84214102D831D8B15
:1026700036978546034787FE630CD40005CC89470F
:102680006307F4028D473355E5006303F400014509
:10269000B2502254456182809947B307F7020583FF
:1026A000BA9755B7B7177A009387072069BF335594
:1026B000C500F9BF3E85E9BF2320050023220500A0
:1026C0002324050023260500232A0500232C0500CA
:1026D00082801C410D6713070704D4417D8F9C4104
:1026E000D58F9445D58FD445D58F9449D58FD4496E
:1026F000D58F944DD58FD98F1CC15C4D7D77130735
:10270000F77FF98F5CCD82801C4193E707041CC1E1
:1027100082804CC5828048454205418182801C41AF
:102720000967D98F1CC10CC9828008456D8D33356E
:10273000A00082804111B717004006C6138707C06A
:102740006302E5086365A702370700409306074068
:10275000630CD50493870780630FF5046312E508C3
:1027600013050040EFF0BFDE1305004015A81387E6
:1027700007406300E50637370140130707C0630BC6
:10278000E500631FF50413054040EFF05FDC13051F
:10279000404039A01305B030EFF07FDB1305B030B7
:1027A000B24041016FF03FDC13051040EFF03FDA1B
:1027B00013051040F5B713052040EFF05FD913055E
:1027C0002040F9BF13053040EFF07FD813053040AB
:1027D000C1BF13055040EFF09FD713055040C9B754
:1027E000B2404101828083D7050003D7450093762C
:1027F000F5BF1CD5B7370140938707C0418B630AEB
:10280000F500FD779387F73FE98F37060040639027
:10281000C7061C4193F7F7F81CC183D72500104168
:1028200093F70706D18F1CC11C415D8F18C19C45D1
:102830005CD5B71700406387F6021C4193F7F7CFCA
:102840001CC183D7C500184193F70730D98F1CC12D
:10285000B7370140138707C06316E50003C7E500DB
:1028600023A8E7C25C4993E717005CC982801C413A
:10287000BD9B55BF1C4193E717001CC182801C41C2
:10288000F59B1CC1828091476397F5001C4193E73B
:1028900047001CC18280FDFD1C41ED9BDDBF5C45F6
:1028A000DD8D4CC5828093C5F5FF0CC98280411136
:1028B000B757004006C6138707C06301E506636F7C
:1028C000A7003747004013070740630BE5029387D3
:1028D0000780630EF502B240410182806307F50470
:1028E000B747014093870780E317F5FE1305E030F3
:1028F000EFF0FFC51305E030B24041016FF0BFC6F5
:1029000013051041EFF0BFC413051041F5B71305CF
:102910002041EFF0DFC313052041F9BF130530411B
:10292000EFF0FFC213053041C1BF13054041EFF086
:102930001FC213054041C9B74111B757004022C417
:1029400026C206C6138707C02A84AE84630FE5003B
:10295000636FA70037470040130707406307E50090
:102960009387078001456310F402094519A8E30E17
:10297000F5FEB74701409387078001456315F400D2
:102980000D45EFF01FC093D71400AA97B3D7970255
:10299000B2409244C207C1831CC4224441018280D8
:1029A0005C4593F7F79F5CC55C45DD8D4CC5828027
:1029B0005C457D777D17F98F5CC55C45DD8D4CC529
:1029C00082801C4975777D17F98F1CC91C49DD8DE4
:1029D0000CC982805C450967D98F5CC582805C45E3
:1029E000DD9BDD8D4CC582805C45ED9BDD8D4CC54E
:1029F000828093F5F51F4CC182805C4993F7F7EF15
:102A0000DD8D4CC982805C4993F7F7DFDD8D4CC9C1
:102A1000828093D7650093F7F73F3E950841335581
:102A2000B5000589828093D7650093F7F73F3E95FF
:102A300018418547B397B700D98F1CC18280B7076B
:102A400000D1D8438843CC43E39DE5FE828000005B
:102A50000000000000000000000000000000000076
:102A60000000000000000000000000000000000066
:102A70000000000000000000000000000000000056
:102A80005D7106C012C216C41AC61EC82ACA2ECC50
:102A900032CE36D03AD23ED442D646D872DA76DC3E
:102AA0007ADEFEC0F322103496C0F322003096C2C4
:102AB000F322407C96C4732520348A85E120864227
:102AC00073901234964273900230A6427390427C07
:102AD00082401242A2423243C2435245E24572460C
:102AE00082561257A2573258C258525EE25E725F47
:102AF000864F616173002030000000005D7106C0E8
:102B000012C216C41AC61EC82ACA2ECC32CE36D05D
:102B10003AD23ED442D646D872DA76DC7ADEFEC0AD
:102B200073D0E87E7350F97E73D0B97EF390D07E77
:102B300073700430B6427390427CA6427390123494
:102B400096427390223482401242A2423243C243E0
:102B50005245E245724682561257A2573258C25821
:102B6000525EE25E725F864F616173002030B7157E
:102B70000008411115469385058A054506C6612C56
:102B800005451D204111856722C406C6FD172A840C
:102B90006313F500E93FB715000815469385858A4C
:102BA0000545952C228509207971B715000822D496
:102BB0007D462A849385058B0A8506D69D22794613
:102BC0008A850945892CA28509450928B715000879
:102BD00005469385C58A09453D2C01A079714ECEE5
:102BE000AE89B715000809469385058D22D426D2F3
:102BF0004AD052CC56CA06D62A897144292C3D4A5D
:102C0000A54AF154B3178A00B3F73701B3D7870049
:102C100093F7F70F63E9FA0293870703E207E18767
:102C200005469305F1004A857114A307F100E522DA
:102C3000E31A94FCB250225492540259F249624A67
:102C4000D24A4561828093877703C9BFAA858146AE
:102C50000146014519A4411122C406C69707000088
:102C60009387A7282A8499C38145B52C972700000C
:102C70009387C71C88431C5591C3829722852D37A3
:102C80004111972700009387A71B22C41724000037
:102C90001304041B1D8C26C206C60984BE8411E4DD
:102CA000B24022449244410182807D149317240053
:102CB000A6979C438297E5B7411197270000938719
:102CC000271822C417240000130484171D8C26C261
:102CD0004AC006C6098481443E89639684029727C8
:102CE00000009387E71517240000130464151D8C5A
:102CF000098481443E89639F8400B2402244924407
:102D000002494101828093972400CA979C4385041D
:102D10008297E1B793972400CA979C4385048297D2
:102D2000D9BFB3C7A5008D8B3307C50081E78D4799
:102D300063EEC700AA876370E50A83C605008507AE
:102D40008505A38FD7FEE3EAE7FE82809376350000
:102D5000AA8791CA83C6050085078505A38FD7FE7C
:102D600093F63700FDB79376C7FF138606FE63F030
:102D7000C70683A3050083A2450083AF850003AF88
:102D8000C50083AE050103AE450103A3850183A8F9
:102D9000C5019385450223A0770003A8C5FF23A2A0
:102DA000570023A4F70123A6E70123A8D70123AAEC
:102DB000C70123AC670023AE17019387470223AEF8
:102DC00007FF75B790419107910523AEC7FEE3EB6E
:102DD000D7FEE3E4E7F6828039713EDA2ED232D4B0
:102DE00036D63AD842DC46DE9387818022CC8043B7
:102DF00026CA06CEAA8409C41C4C99E322859D24C8
:102E00000C4454102686228536C6D923F2406244EB
:102E1000D2442161828093878180B2862E86AA85E2
:102E2000884309A0411122C42A842E85B2853686A2
:102E30009707001823AA077006C6EF10A037FD57A2
:102E40006319F50097070018938707709C4391C397
:102E50001CC0B24022444101828097D7FF1793875C
:102E6000A7229C432A8E8DE71707001813070765D2
:102E700097D7FF1723AAE72017D5FFF71305851863
:102E8000BA8719C51C4117050018232DF56ABA87A2
:102E9000D8437D487D556347E804630E0E0203A8BE
:102EA00087086301080493182700C29823A0C8006C
:102EB0000323081005463316E6003363C3002320BE
:102EC000681023A0D80889466317DE0083264810BF
:102ED000558E2322C810930617000A07D4C3BA9749
:102EE0008CC701458280797152CC56CA5AC85EC6D9
:102EF00006D622D426D24AD04ECE62C42A8B2E8A3F
:102F000097DAFF17938A4A18854B03A40A0011C861
:102F10004440832984081389F4FF8A04A294635EE1
:102F20000900B250225492540259F249624AD24ADC
:102F3000424BB24B224C45618280630E0A0063957E
:102F400009007D19F114E1BF93172900CE9783A7DB
:102F50000708E39847FF5840DC407D1763182703B4
:102F600023222401F9DF032C44006388090083A68F
:102F7000091033972B01F98E89EE8297584083A769
:102F80000A00E31487F9E30EF4FA41B723A2040020
:102F9000D1BF93162900CE968C4283A64910758F17
:102FA00001E75A858297D9BF2E858297C1BF41110B
:102FB00022C406C62A842316B5002317C500232081
:102FC00005002322050023240500232205062328CB
:102FD0000500232A0500232C050021468145130501
:102FE000C505E52A971700009387A7A65CD0971719
:102FF0000000938707A91CD497170000938767AD3B
:103000005CD497170000938727B000D01CD8B2403B
:10301000224441018280971500009385E5E381AA4F
:10302000411126C2130680069384F5FFB384C402BF
:103030004AC02E8922C406C69385440799242A844F
:1030400019C92320050023222501310508C4138650
:103050008406814559222285B24022449244024985
:10306000410182801C4DBDE3411106C622C4970771
:103070000000938787FA1CD597270000938707DC09
:103080009C432324050423260504232805046314F4
:10309000F50085471CCD2A841D2848C022850528B7
:1030A00008C422852D2048C4484001469145013777
:1030B00008440546A545E53D48440946C945C53D82
:1030C00085471CCCB240224441018280828041115C
:1030D00097270000938787D626C284434AC006C636
:1030E0009C4C22C42A8999E32685AD3F93848404AD
:1030F0008044DC40FD1763D607009C40B1CF84407C
:10310000C5BF0317C40031E7C17785072322040632
:103110002320040023220400232404005CC4232869
:103120000400232A0400232C0400214681451305B2
:10313000C4056520232A0402232C0402232404044A
:10314000232604042285B2402244924402494101CC
:1031500082801304840679BF91454A85EFF05FECC5
:1031600088C02A8449FDB1472320F900E1BF797165
:1031700022D44AD052CC56CA5AC85EC606D626D2E7
:103180004ECE2A8AAE8A130485040149054BFD5BA5
:1031900009ECB25022544A8592540259F249624ACB
:1031A000D24A424BB24B4561828004448329440099
:1031B000FD1963D409000040E1BF83D7C400637BDD
:1031C000FB008397E40063877701A6855285829A86
:1031D0003369A90093848406E1BF3D432A87637362
:1031E000C3029377F700BDEFADE5937606FF3D8A06
:1031F000BA960CC34CC30CC74CC74107E36BD7FE50
:1032000011E28280B306C3408A06970200009696B8
:103210006780A6002307B700A306B7002306B70000
:10322000A305B7002305B700A304B7002304B70024
:10323000A303B7002303B700A302B7002302B7001C
:10324000A301B7002301B700A300B7002300B70014
:10325000828093F5F50F93968500D58D93960501A1
:10326000D58D61B7939627009702000096968682C7
:10327000E78086FA9680C1171D8F3E96E374C3F8E7
:10328000A5B7011126CA93843500F19806CE22CC49
:103290004AC84EC6A104B14763F9F404B14463E8D7
:1032A000B4042A89EF00F05597D7FF17938707DEFC
:1032B00098433A8439E497D7FF17938767DD9C4397
:1032C00081EB81454A85A12F97D7FF1723A2A7DC61
:1032D000A6854A85A927FD59631B3507B1472320D9
:1032E000F9004A85EF00105229A0E3DA04FAB14749
:1032F0001CC10145F2406244D2444249B2490561D1
:1033000082801C40858F63C10704AD4663F6F600DA
:103310001CC03E9404C001A85C406315870217D707
:10332000FF172325F7D64A85EF00D04D1305B400CB
:103330009307440061993307F5404DDF3A94898F34
:103340001CC04DBF5CC3C5B722874040A5B713045E
:1033500035007198E30085FCB305A4404A85C1257A
:10336000E31A35FBA5BF1C46FD171CC663D9070031
:10337000184E63C5E700A9476393F50079A71C427F
:103380002E851387170018C22380B7008280011191
:1033900022CC26CA4AC84EC652C406CE2A89AE8955
:1033A0003284B304D6007D5A63149400014509A801
:1033B000834504004E864A857D370504E31645FFA4
:1033C000F2406244D2444249B249224A05618280B5
:1033D000357122CD26CB4AC94EC706CF52C556C33A
:1033E0005AC1DEDEE2DCE6DAAA89AE8432893684AE
:1033F00009C51C4D99E3EFF0FFC697D7FFFF9387F0
:10340000A74F639CF40C83A4490083D7C400A18B0D
:10341000FDC79C48EDC793070002A304F102930780
:10342000000302D22305F10222C6930B500297DA61
:10343000FFFF938A6A50054C294B4A848347040056
:1034400099C36390770FB30C2441638D0C00E6861B
:103450004A86A6854E85253FFD576308F51E925680
:10346000E69636D2834704006381071EFD57130991
:10347000140002C802CE3ECA02CCA309010482D4C1
:103480008345090015465685EF00103613041900D0
:10349000C24751E913F7070109C713070002A3093F
:1034A000E10413F7870009C71307B002A309E10479
:1034B000834609001307A002638FE606F2474A8499
:1034C000814625460347040093051400130707FDB2
:1034D0006378E60AADCA3ECEBDA097D7FFFF9387BB
:1034E000A7436395F40083A4890005B797D7FFFF2E
:1034F0009387873EE39BF4F083A4C90039B7A68580
:103500004E85E92509D97D55FA406A44DA444A498D
:10351000BA492A4A9A4A0A4BF65B665CD65C0D6148
:103520008280050421BF330555413315AC00C98F96
:103530003EC82289B1B7324793064700184336C6C2
:10354000634907023ACE034704009307E002631F72
:10355000F704034714009307A002631BF702B24766
:103560000904138747009C433AC663C107023ECA59
:1035700035A83307E04093E727003ACE3EC8E1B7CD
:10358000B387670385462E84BA972DBFFD57C5B70D
:10359000050402CA81468147254603470400930576
:1035A0001400130707FD6378E606F1F28345040073
:1035B0000D4617D5FFFF1305A538EF00F02211CDFA
:1035C00097D7FFFF9387C7371D8D93070004B397E5
:1035D000A700424505045D8D2AC8834504001946AD
:1035E00017D5FFFF13050536130914002304B10294
:1035F000EF00901F3DC197D7FFF79387A7A095E7EE
:103600004247B2471377071009CF91073EC692573A
:10361000D2973ED21DB5B387670385462E84BA97ED
:10362000ADBF9D07E19BA107D5B7780097060000C5
:10363000938626D626860C084E8597000000E70064
:103640000000FD572A8AE314F5FC83D7C40093F7E2
:103650000704E39A07EA125545BD78009706000073
:10366000938626D326860C084E85012AD9BF797108
:1036700056CA9C49BA8A984522D426D24ECE52CCFC
:1036800006D64AD05AC85EC6AA892E84B284368A23
:1036900063D3E700BA879CC00347340419C3850786
:1036A0009CC01C4093F7070281C79C4089079CC0BF
:1036B0000329040013796900631A0900130B9401AC
:1036C000FD5B5C449840998F634CF9041C40834631
:1036D000340493F70702B336D000A5EB1306340485
:1036E000D2854E85829AFD576303F5041C4011462E
:1036F0009840998B544481446397C700B384E64053
:1037000063D3040081441C4418486354F700998F24
:10371000BE94014969047D5B63982405014509A8AD
:1037200085465A86D2854E85829A631E75017D55DF
:10373000B250225492540259F249624AD24A424B40
:10374000B24B456182800509ADBF3307D400130633
:103750000003A301C7040347540493871600A297EC
:103760008906A381E7049DBF85462286D2854E85C2
:10377000829AE30E65FB050945B7797122D426D2FA
:103780004AD04ECE06D652CC56CA5AC8B68983C63F
:1037900085019307E0063289AA842E8413863504B6
:1037A0006381F61E63E2D706930730066382F60A4A
:1037B00063EDD700638B061E930780056387F616BB
:1037C000930A24042301D40469A89307400663865E
:1037D000F60093079006E395F6FE1C40084393F627
:1037E000070893054500C1C21C410CC363D80700FC
:1037F0001307D002B307F040A301E40497D6FFFFFC
:103800009386C614294765A0930730076383F61A89
:1038100063EFD7009307F006638FF6049307000762
:10382000E390F6FA9C4193E707029CC109A893072D
:1038300050076382F60493078007E393F6F8930733
:103840008007A302F40497D6FFFF93866611E5A0D4
:103850001C43938A2504938647009C4314C3238109
:10386000F5048547B5A293F607041C410CC3BDDEE1
:10387000C207C187A5BF0C401C4313F80508138578
:1038800047006305080008C39C4339A093F505046D
:1038900008C3FDD983D707001307F006638BE60C36
:1038A00097D6FFFF9386860A2947A30104044C405C
:1038B0000CC463C5050008406D9908C099E3B28A3D
:1038C00091CDB28AB3F5E702FD1AB69583C505001E
:1038D0002380BA00B3D5E70263F3E70AA147631E6A
:1038E000F7001C40858B91CB58401C4863C7E7000C
:1038F00093070003A38FFAFEFD1A3306564110C842
:103900004E87CA867000A2852685EFF05FD67D5A65
:103910006314450D7D55B250225492540259F24918
:10392000624AD24A424B45618280A382D50497D62F
:10393000FFFF9386A6010C40084313F805081C41BD
:1039400011056300080208C313F7150001C793E5CA
:1039500005020CC04147B1FB0C4093F5F5FD0CC0CE
:10396000A9B713F8050408C3E30008FEC207C18322
:10397000E1BF97D6FFFF938666FD21473DB7AE872F
:1039800091B794411C43CC4913F8060813854700AE
:103990006306080008C39C438CC301A808C393F6C0
:1039A00006049C43F5DA2390B70023280400B28A6A
:1039B00081BF1C43D04181459386470014C383AA2D
:1039C00007005685152501C53305554148C05C40A3
:1039D0001CC8A30104042DB714485686CA85268541
:1039E0008299E30945F31C40898B8DE7B24748442F
:1039F000E353F5F23E8505B785465686CA8526858A
:103A00008299E30965F1050A5C443247998FE345E1
:103A1000FAFEE9BF014A930A94017D5BF5B74111B3
:103A200022C42A842E859707001823AF07B006C644
:103A3000A92FFD576319F500970700189387C7B0A2
:103A40009C4391C31CC0B240224441018280411179
:103A500022C42E848395E50006C6A92D634905007E
:103A60007C48AA977CC8B240224441018280835797
:103A7000C4007D777D17F98F2316F400EDB783D747
:103A8000C500011122CC26CA4AC84EC606CE93F7FD
:103A90000710AA842E843289B68991C78395E500E0
:103AA0008946014621298357C4007D777D17F98F08
:103AB0002316F4008315E4006244F240CE864A8661
:103AC000B24942492685D24405616FF0AFB5411134
:103AD00022C42E848395E50006C6CD26FD570357E4
:103AE000C400631BF500FD77FD17F98F2316F40062
:103AF000B2402244410182808567D98F2316F400A9
:103B000068C8FDB78395E500C9AA011122CC26CA71
:103B10004AC806CE4EC6AA842E89328409C51C4DD9
:103B200099E3EFF02FD497D7FFFF9387E7DC631972
:103B3000F406C0401C4C1CC48357C400A18BC9C3ED
:103B40001C48BDCF1C4808409379F90F1379F90F31
:103B50001D8D5C486346F500A2852685E52C2DE584
:103B60001C440505FD171CC41C401387170018C012
:103B7000238037015C486389A7008357C400858B85
:103B800081CBA9476316F900A2852685E1240DEDB6
:103B9000F24062444A85D2444249B249056182807A
:103BA00097D7FFFF938747D76314F400804459B732
:103BB00097D7FFFF938747D2E31EF4F6C0449DBF1B
:103BC000A285268521203DDD7D59D9B741119387F6
:103BD000818026C2844322C44AC006C62A892E8414
:103BE00091C49C4C81E72685EFF0CFC797D7FFFFA4
:103BF000938787D0631CF402C0400317C400931757
:103C00000701C18393F68700B5EE93F607019DEE99
:103C1000A5472320F900136707042316E4007D5508
:103C2000B2402244924402494101828097D7FFFF6B
:103C3000938787CE6314F4008044C1B797D7FFFF02
:103C4000938787C9E31BF4FAC04445BF918B8DC7A6
:103C50004C5889C9930744046384F5004A85652656
:103C6000232A04028357C4002322040093F7B7FDDC
:103C70002316F4001C481CC08357C40093E7870038
:103C80002316F4001C4881EF8357C400130700205B
:103C900093F707286385E700A2854A857524835733
:103CA000C40013F7170005C75C4823240400B307BA
:103CB000F0401CCC1C480145A5F78317C40013F73E
:103CC000070839DF93E707042316F40089BF898BBF
:103CD000014791E3584818C4F1BF411122C42A8416
:103CE0002E859707001823A1078606C6B929FD5718
:103CF0006319F50097070018938707859C4391C3C4
:103D00001CC0B24022444101828083D7C50001110A
:103D100022CC26CA06CE4AC84EC613F78700AA840C
:103D20002E8465E7D8416347E000B8416344E00072
:103D30000145C1A058546DDF03A9040093963701D3
:103D400023A0040063DE060668488357C400918BF5
:103D500099C75C401D8D5C5899C33C401D8D5C54D7
:103D60000C502A86814626858297FD570357C4004A
:103D7000631DF5009440F54763E4D708B70740207A
:103D80008507B3D7D700858BA5CF1C482322040015
:103D90001CC09317370163D80700FD576314F50063
:103DA0009C4091E368C84C5823A02401D1D19307CB
:103DB00044046384F5002685B924232A04028DBFB8
:103DC0000C508546014626850297FD57E31FF5F600
:103DD0009C40A5DF75476385E70059476395E70079
:103DE00023A02401B1B78357C40093E70704231627
:103DF000F400F2406244D2444249B24905618280F3
:103E0000136707042316E400EDB783A90501E381D6
:103E100009F203A905008D8B23A03501330939412F
:103E2000014791E3D84918C4E35420F11C540C50C5
:103E3000CA864E8626858297634AA0008357C400AF
:103E40007D5593E707042316F40065B7AA99330953
:103E5000A940D9BF9C49ADC3011122CC06CE2A840A
:103E600019C51C4D89E72EC6EFF0CF9FB24597D7F5
:103E7000FFFF938767A8639CF5004C408397C500BC
:103E80009DC722856244F24005616FF01FE897D715
:103E9000FFFF938767A86394F5000C44C5B797D7D5
:103EA000FFFF938767A3E39BF5FC4C44C1BFF2403F
:103EB000624401450561828001458280411122C42E
:103EC0002A842E85B285368697F7FF1723AE0766BC
:103ED00006C64524FD576319F50097F7FF1793872A
:103EE000A7669C4391C31CC0B2402244410182801A
:103EF0001971A6DAAE848395E500A2DC86DE3284F1
:103F000063DC050083D7C40023A0060093F70708ED
:103F10009DE39307004015A0300836C6F122B24653
:103F2000E34205FE7247BD67F98F7977BA9793B779
:103F300017009CC2F9BF930700041CC0F6506654DA
:103F4000D65401450961828083D7C500011122CC76
:103F500006CE26CA4AC8898B2E8489CF930774045B
:103F60001CC01CC885475CC8F2406244D244424928
:103F70000561828074003000AA84EFF07FF7A245CB
:103F80002A892685EFF0EFAF01ED8317C40013F700
:103F9000072079FBF19B93E727002316F4007DBFF0
:103FA00097F7FFFF938767079CD48357C40008C027
:103FB00008C893E707082316F400A2475CC8B24775
:103FC00089CF8315E4002685892A01C98357C40057
:103FD000F19B93E717002316F4008357C40033695D
:103FE000F9002316240149B793F5F50F2A966314B7
:103FF000C5000145828083470500E38DB7FE0505B6
:10400000FDB782808280D5C583A7C5FF411122C438
:1040100006C626C21384C5FF63D307003E94AA8454
:10402000CD3797C7FF17938767069C4391EF2322ED
:10403000040097C7FF1723AB87042244B2402685AC
:10404000924441016FF01FFC637EF400144033077B
:10405000D4006396E7009843DC43369718C05CC0F1
:10406000C9BFBA87D84319C3E37DE4FE94433386BE
:10407000D700631F86001040B29694C33386D700E2
:10408000E31DC7FA10435843B29694C3D8C375B71B
:104090006375C400B1479CC04DB71040B306C4005F
:1040A0006316D70014435843B29614C058C0C0C317
:1040B00069B78280411122C42A842E85B285368652
:1040C00097F7FF1723A2074806C67528FD576319FF
:1040D000F50097F7FF17938727479C4391C31CC0B0
:1040E000B240224441018280411122C42A842E859B
:1040F000B28597F7FF1723A9074406C68928FD57FD
:104100006319F50097F7FF17938707449C4391C302
:104110001CC0B240224441018280411122C42A8441
:104120002E8597F7FF1723A1074206C63D28FD57A6
:104130006319F50097F7FF17938707419C4391C3D5
:104140001CC0B2402244410182807D558280011111
:1041500006CE2EC6552001C9B24589670145DCC18E
:10416000F240056182807D55E5BF7D151335250040
:104170008280411106C64920B2401335150033052F
:10418000A040410182807D5582801387C1801C43FD
:10419000B7360020938686543E95636BD500B7866C
:1041A00000209386068063E5A60008C33E858280D2
:1041B000FD57EDBF011122CC26CA4AC84EC606CE15
:1041C000B2842E843389C500A949631A2401F240C0
:1041D000624426854249D244B24905618280034542
:1041E0000400EFE00F9C83470400639537013545D9
:1041F000EFE02F9B0504D1BF6FF03FF7797113D823
:10420000450126D24ECE52CC5AC85EC69394C50004
:1042100006D622D44AD056CA1378F87F2A8BB28B9E
:10422000368AB18093D9F501630408089307F07FBB
:10423000630AF80C935AD5018E04B3E49A00B70AC6
:104240008000B3EA540113143500130918C0014B60
:1042500013554A019314CA001378F57FB180135A9D
:10426000FA016304080C9307F07F6309F8101395B3
:10427000340093D7DB015D8DB7048000C98C139F98
:104280003B00130518C0814713172B005D8F7D1766
:10429000B94633C649013308A94063E3E61097C61F
:1042A000FFFF9386266D0A073697184336970287D5
:1042B000B3EAA40063820A069DC82685EF00103485
:1042C000930755FF71476349F702F54A130485FFC9
:1042D000B38AFA40B3948400B35A5B01B3EA9A00FC
:1042E00033148B001308D0C03309A8408DB7EF00FA
:1042F000F03013050502E9B7930485FDB31A9B005E
:104300000144CDB7B3EAA400638C0A002A84A68ACC
:104310001309F07F0D4B2DBF01440149054B0DBF23
:1043200001441309F07F094B25B733EF7401630093
:104330000F068DC82685EF00702C930755FF714737
:104340006348F7027547130F85FF1D8FB394E4018F
:1043500033D7EB00D98C339FEB011306D0C0330564
:10436000A64015B75E85EF00702913050502F1B769
:10437000930485FDB3949B00014FC5B733EF7401DF
:10438000630B0F005E8F1305F07F8D47F5BD8144F1
:1043900001458547D5BD81441305F07F8947EDB5BB
:1043A00063E6540163939A2A6361E42B9396FA01BE
:1043B000135714009317F40193DA1A0033E4E6005C
:1043C0001395840093548F01458D135E0501B3D876
:1043D000CA03131305011353030113570401931563
:1043E0008F00B3F4CA03C68FB3061303939A040174
:1043F00033675701637CD7002A97938FF8FF636771
:10440000A7006375D700938FE8FF2A97158FB35ED7
:10441000C703420441803377C703F686B308D3034A
:104420004207418F637C17012A979386FEFF6367DB
:10443000A700637517019386EEFF2A97C20FB3EFAB
:10444000DF00C166330417419388F6FF13DF0F01C5
:1044500033F71F0193DE0501B3F81501B30317030A
:10446000B3041F033387EE02B302DF03330F970059
:1044700013D703017A9763739700B692135F07010E
:10448000169FC162FD12B3765700C206B3F3530004
:104490009E966367E401FE84631EE40363FCD70217
:1044A000AE9733B7B7002A973A949384FFFF6366B9
:1044B00085006311850263EFB7006366E401631B47
:1044C0008F0063F9D700AE9733B7B7002A9793846C
:1044D000EFFF3A94B386D7403304E441B3B7D70033
:1044E0001D8C7D5F6305850E335FC40313D7060102
:1044F0003374C403B307E3034204598C7A87637CA3
:10450000F4002A941307FFFF6367A4006375F400A7
:104510001307EFFF2A941D8C335FC403C206C182C8
:104520003374C403FA873303E3034204558C637C7A
:1045300064002A949307FFFF6367A4006375640017
:104540009307EFFF2A9442075D8F93170701C183FA
:104550003304644013530701338E1703B308130366
:1045600033836E02B38EFE0293570E01C69EF697FA
:1045700063F41701C166369393D807019A98416393
:104580007D13B3F66700C206337E6E00F296636653
:104590001401631E14193A8F9DCA2A94130FF7FF52
:1045A0006361A402636614016312141963FDD500EC
:1045B00093971500B3B5B7002E95130FE7FF2A9414
:1045C000BE85631414016384B600136F1F001307C4
:1045D000F83F6357E00A93777F0081CF9377FF001E
:1045E00091466388D70093064F0033BFE601FA94E3
:1045F000368F9397740063D80700B70700FFFD1745
:10460000FD8C130708409307E07F63C8E710135F32
:104610003F009397D401B3E7E70113D53400320587
:104620001377F77F5207B25022543181598D7E069D
:104630003367C50092540259F249624AD24A424B4A
:10464000B24B3E85BA85456182807D1881478DBB1E
:104650004E86D684228FDA8709476380E70C0D47A0
:104660006386E70A0547E394E7F60145814785A895
:104670005286DDB7B7040800014F01468D47E9BFF8
:104680000545198D93078003E3C1A7FEFD4763CA63
:10469000A7041308E841B39704013357AF00331858
:1046A0000F01D98F33380001B3E7070133D5A400D8
:1046B00013F7770001CF13F7F70091466308D7008F
:1046C00013874700B337F7003E95BA871317850065
:1046D000634A07041317D5018D83D98F0D810147D4
:1046E0003DBF8557998F93060002B3D7F400014769
:1046F0006306D5001308E84333970401336FE701DD
:10470000333FE001B3E7E70101455DB73705080036
:1047100081471307F07F014619B701458147130709
:10472000F07FF5BD014581470547D5BD7A873A8FB2
:1047300069BD13D84501B7071000FD1713D746010F
:104740001378F87F930EF07FB3F8B7002A83F58FC4
:10475000FD81328E1377F77FFD826318D801B3EEA7
:10476000A80063850E0689450DA86316D701B3EE30
:10477000C700E39A0EFE631D080433E5A800133555
:10478000150019E35D8E15CE11E5638AD50085C944
:10479000FD5521A0FD5591C2B6852E858280E34846
:1047A00007FF6354E800F5F9E5B7E3E217FF639C00
:1047B000F800E36E6EFCE368C3FF8145F9BF8545F1
:1047C000E9BF65FDE9B7E3E0F8FEC5BFE30107FB1C
:1047D0004DFF014545BF79714ECE93D9450122D495
:1047E00026D252CC56CA5AC89394C50006D64AD08F
:1047F0005EC693F9F97F2A84328BB68AB18013DAC8
:10480000F501638109089307F07F6383F90C9357DF
:10481000D5018E04DD8CB7078000DD8C13193500BF
:10482000938919C0814B13D54A011394CA0013759B
:10483000F57F318093DAFA0155CD9307F07F63015C
:10484000F5109357DB010E045D8CB70780005D8C7B
:10485000130515C093173B00014793962B00D98E83
:104860004E95FD16B94533465A011308150063EA03
:10487000D50E97C5FFFF9385A5138A06AE96944281
:10488000AE96828633E9A400630D090485C82685A7
:10489000B523130755FFF14763C6E702F547130930
:1048A00085FF998FB3942401B357F400DD8C33193D
:1048B00024019309D0C0B389A940ADB78123130562
:1048C0000502C1BF930485FDB31494000149D5B717
:1048D00033E9A400630B09002A899309F07F8D4B0B
:1048E00099B781448149854B3DBF81449309F07F4D
:1048F000894B15BFB3676401A1CF05C82285FD2987
:10490000930655FFF14763C7D7027547930785FFA5
:10491000158F3314F4003357EB00598CB317FB0099
:104920001307D0C03305A74005BF5A85C129130519
:104930000502F9B7130485FD33148B008147CDB709
:10494000B367640191CBDA871305F07F0D4731B768
:1049500001440145054711B701441305F07F09479C
:10496000EDBD416F930EFFFF1357090193D8070167
:104970003379D901B3F7D701B3852803B386270369
:10498000B30FF7023383F50193D506019A95330EE1
:10499000170363F3F5017A9E93D30501B3F5D501AF
:1049A000B3F6D601135F0401B372D401C205B69504
:1049B000B30E5702B386220333092F033303D90101
:1049C00013D906011A993307E7036374D9014163C8
:1049D0001A97935E0901C169BA9E1387F9FF33796B
:1049E000E900F98E13D404014209F98C3699338712
:1049F0009702CA933303F402B3869802B3878802FE
:104A0000B388660093560701C69663F36600CE9797
:104A100093D80601C169B38FF8009387F9FFFD8E23
:104A20007D8FB3889202C206BA96B3075402B304CC
:104A30009F0233038F02BE9413D40801A29463F340
:104A4000F4004E93C167FD1733F7F400B3F8F80094
:104A500042071E9E469733392E017697330427016D
:104A6000369EB336DE00B308F401338FD8003337F7
:104A7000D70133342401598CC180B3B8F801B3365F
:104A8000DF002694B3E6D80036941A9493577F013A
:104A900026045D8C93179E00CD8FB337F000135E14
:104AA0007E0113179F00B3E7C701D98F1317740056
:104AB0006358070A13D71700858BD98F1317F40192
:104AC000D98F05809306F83F635ED00813F777000F
:104AD00001CF13F7F70091456308B700138747002C
:104AE000B337F7003E94BA87131774006358070072
:104AF000370700FF7D17798C930608401307E07F86
:104B0000634CD70E13D737009317D401D98F0D807C
:104B1000320413F7F67F52073180598C7E063367D3
:104B2000C400B250225492540259F249624AD24A05
:104B3000424BB24B3E85BA854561828052862684BF
:104B4000CA875E8789466309D70A8D46630FD708EF
:104B50008546E319D7F6014481479DA05686DDB707
:104B60002A888DB78545958D13078003E345B7FEE9
:104B70007D476349B7041308E84133170401B3D6EE
:104B8000B700B3970701558FB337F000D98F33546F
:104B9000B40013F7770001CF13F7F70091466308CD
:104BA000D70013874700B337F7003E94BA8713172F
:104BB0008400634807041317D4018D83D98F0D80B7
:104BC0008146B9B70557158F130500023357E40026
:104BD00081466386A5001308E843B3160401D58F08
:104BE000B337F000D98F01446DB73704080081470F
:104BF0009306F07F014629BF014481479306F07F69
:104C000001BF01448147854621B7411122C406C630
:104C10002A8429C1E5221307E041A947098F63C609
:104C2000A702AD47898F5505B357F4003314A4008C
:104C30002285B2402244B2071377F77F5207B1832F
:104C4000B3E6E700B685410182805515B317A4008D
:104C50000144F9BF81470147E1BF011106CE22CCD3
:104C600026CA4AC84EC652C4B367B500638A071243
:104C70002A842E89AE84A5C52E854922AA89130AC5
:104C8000E043330A3A419307304363C44707AD47D3
:104C9000228563D337039307A00263C637059305C4
:104CA000B002938759FFB3853541B355B400B314AF
:104CB000F900CD8C3315F4009395C400F2406244A2
:104CC000137AFA7F520AB181B3E745012A87D244A9
:104CD0004249B249224A3A85BE8505618280392A15
:104CE0009309050269BF938559FDB314B4000145CA
:104CF000E1B79307604363D3470313868903228593
:104D0000CA85C128C98D2146B334B0002285CA8521
:104D100033063641512833E4A4002E89A147228569
:104D200063D437039307700263C637079305800285
:104D3000938789FFB38535413319F900B355B40022
:104D400033E925013315F400B70780FFFD17B3756C
:104D5000F9009377750081CF9377F5001147638849
:104D6000E7009307450033B5A700AA953E859397C2
:104D7000850063DA0700B70780FFFD17130AF043C9
:104D8000FD8D330A3A410D819397D5015D8D93D402
:104D900035001DB7138989FD3319240101456DB70D
:104DA00081440145014A09BF01CE93070002918F5A
:104DB0006349F000130506FE014733D5A500BA8507
:104DC000828033D7C5003355C500B395F5004D8DAE
:104DD000FDB701CE93070002918F6349F000930560
:104DE00006FE0147B315B5003A8582803317C5002A
:104DF000B395C5003355F500C98DFDB7C16763761E
:104E0000F5029307F00FB3B7A7008E071307000250
:104E10001D8FB357F50017C5FFFF130525BDAA97D2
:104E200003C507003305A740828037070001C1474B
:084E3000E36EE5FCE147D9BF88
:044E38000000002056
:104E3C0000000000F408000814090008D408000859
:104E4C000000000000000000000000000000000056
:104E5C000000000000000000000000000000000046
:104E6C000000000000000000000000000000000036
:104E7C000000000000000000000000000000000026
:104E8C000000000000000000000000000000000016
:104E9C000100000000F36F060000002048350020E0
:040000050800015C92
:00000001FF
